{
  "contractName": "FundRaising14",
  "abi": [
    {
      "constant": false,
      "inputs": [
        {
          "name": "amount",
          "type": "uint256"
        }
      ],
      "name": "withdraw",
      "outputs": [
        {
          "name": "returnAmount",
          "type": "uint256"
        }
      ],
      "payable": false,
      "stateMutability": "nonpayable",
      "type": "function"
    },
    {
      "constant": true,
      "inputs": [],
      "name": "set14DaysCount",
      "outputs": [
        {
          "name": "",
          "type": "uint256"
        }
      ],
      "payable": false,
      "stateMutability": "view",
      "type": "function"
    },
    {
      "constant": false,
      "inputs": [
        {
          "name": "daysToSet",
          "type": "uint256"
        }
      ],
      "name": "setDaysCount",
      "outputs": [
        {
          "name": "",
          "type": "uint256"
        }
      ],
      "payable": false,
      "stateMutability": "nonpayable",
      "type": "function"
    },
    {
      "constant": false,
      "inputs": [
        {
          "name": "amount",
          "type": "uint256"
        }
      ],
      "name": "deposit",
      "outputs": [],
      "payable": false,
      "stateMutability": "nonpayable",
      "type": "function"
    },
    {
      "inputs": [],
      "payable": false,
      "stateMutability": "nonpayable",
      "type": "constructor"
    },
    {
      "anonymous": false,
      "inputs": [
        {
          "indexed": true,
          "name": "_from",
          "type": "address"
        },
        {
          "indexed": true,
          "name": "_to",
          "type": "address"
        },
        {
          "indexed": false,
          "name": "_value",
          "type": "uint256"
        }
      ],
      "name": "Transfer",
      "type": "event"
    }
  ],
  "bytecode": "0x6060604052341561000f57600080fd5b33600360006101000a81548173ffffffffffffffffffffffffffffffffffffffff021916908373ffffffffffffffffffffffffffffffffffffffff160217905550600e600281905550610442806100676000396000f300606060405260043610610062576000357c0100000000000000000000000000000000000000000000000000000000900463ffffffff1680632e1a7d4d146100675780637e17675d1461009e578063a138e365146100c7578063b6b55f25146100fe575b600080fd5b341561007257600080fd5b6100886004808035906020019091905050610121565b6040518082815260200191505060405180910390f35b34156100a957600080fd5b6100b161025e565b6040518082815260200191505060405180910390f35b34156100d257600080fd5b6100e86004808035906020019091905050610267565b6040518082815260200191505060405180910390f35b341561010957600080fd5b61011f60048080359060200190919050506102d5565b005b600060025442620151808202600160003373ffffffffffffffffffffffffffffffffffffffff1673ffffffffffffffffffffffffffffffffffffffff168152602001908152602001600020540111151561017a57600080fd5b826000803373ffffffffffffffffffffffffffffffffffffffff1673ffffffffffffffffffffffffffffffffffffffff1681526020019081526020016000205481111515156101c857600080fd5b836000803373ffffffffffffffffffffffffffffffffffffffff1673ffffffffffffffffffffffffffffffffffffffff168152602001908152602001600020600082825403925050819055503373ffffffffffffffffffffffffffffffffffffffff166108fc859081150290604051600060405180830381858888f19350505050151561025457600080fd5b8392505050919050565b6000600e905090565b6000600360009054906101000a900473ffffffffffffffffffffffffffffffffffffffff1673ffffffffffffffffffffffffffffffffffffffff163373ffffffffffffffffffffffffffffffffffffffff161415156102c557600080fd5b81600281905550600c9050919050565b806000803273ffffffffffffffffffffffffffffffffffffffff1673ffffffffffffffffffffffffffffffffffffffff168152602001908152602001600020600082825401925050819055506000600160003273ffffffffffffffffffffffffffffffffffffffff1673ffffffffffffffffffffffffffffffffffffffff1681526020019081526020016000205414156103ae5742600160003273ffffffffffffffffffffffffffffffffffffffff1673ffffffffffffffffffffffffffffffffffffffff168152602001908152602001600020819055505b3373ffffffffffffffffffffffffffffffffffffffff163073ffffffffffffffffffffffffffffffffffffffff167fddf252ad1be2c89b69c2b068fc378daa952ba7f163c4a11628f55a4df523b3ef836040518082815260200191505060405180910390a3505600a165627a7a723058207b5c6578843dc75ed81f1162db8d1c0f3b4b45879803c000fc5d6924ce5597750029",
  "source": "pragma solidity ^0.4.4;\n\ncontract FundRaising14 {\n    mapping (address => uint) balances;\n    mapping (address => uint) ledger;\n    uint internal daysCount;\n    address private creator;\n\n    function FundRaising14() public {\n        creator = msg.sender;\n        daysCount = 14;\n    }\n\n    event Transfer(address indexed _from, address indexed _to, uint256 _value);\n\n    function deposit(uint amount) public {\n        //cannot deposit value by other contract: tx.origin used\n        balances[tx.origin] += amount;\n        if(ledger[tx.origin] == 0) {\n            ledger[tx.origin] = now;\n        }\n        Transfer(this, msg.sender, amount); //cannot watch this event from within this contract\n    }\n    \n    modifier checkAvailableAmount(uint amount) {\n        require(amount <= balances[msg.sender]);\n        _;\n    }\n    \n    modifier checkSinceFirstDeposit(uint daysCountCheck) {\n        require(ledger[msg.sender] + (daysCountCheck * 1 days) > now);\n        _;\n    }\n    \n    modifier onlyWhenCreatorAddress {\n        require(msg.sender == creator);\n        _;\n    }\n    \n    function setDaysCount(uint daysToSet) public\n    onlyWhenCreatorAddress()\n    returns (uint)\n    {\n        daysCount = daysToSet;\n        return 12;\n    }\n\n    function set14DaysCount() constant public returns (uint) {\n        return 14;\n    }\n    \n    function withdraw(uint amount) public \n    checkSinceFirstDeposit(daysCount)\n    checkAvailableAmount(amount)  \n    returns (uint returnAmount)\n    {\n        balances[msg.sender] -= amount;\n        if(!msg.sender.send(amount)) {\n            revert();\n        }\n\n        return amount;\n    }\n    \n    \n}",
  "sourcePath": "/Users/wolinskip/Documents/Blockchain dev/Truffle projects/Pragmatic coders /contracts/FundRaising14.sol",
  "compiler": {
    "name": "solc",
    "version": "0.4.18+commit.9cf6e910.Emscripten.clang"
  },
  "schemaVersion": "1.0.1",
  "updatedAt": "2018-01-28T18:46:19.341Z"
}